:020000040800F2
:1000000000500020A9400008F1400008F14000081D
:10001000F1400008F1400008F14000080000000035
:10002000000000000000000000000000F140000897
:10003000F140000800000000F1400008A90C000891
:10004000F1400008F1400008F1400008F1400008CC
:10005000F1400008F1400008F1400008F1400008BC
:10006000F1400008F1400008F1400008F1400008AC
:10007000F1400008F1400008F1400008F14000089C
:10008000F1400008F1400008F1400008F14000088C
:10009000F1400008F1400008F1400008F14000087C
:1000A000F1400008F1400008F1400008F14000086C
:1000B000F1400008F1400008F1400008F14000085C
:1000C000F1400008F1400008F1400008F14000084C
:1000D000F1400008F1400008F1400008F14000083C
:1000E000B50C000891340008F14000080000000041
:1000F0000000000000000000000000000000000000
:0C01000000000000000000005FF808F1A3
:10010C0010B5054C237833B9044B13B10448AFF345
:10011C0000800123237010BD680000200000000047
:10012C004054000808B5034B1BB103490348AFF317
:10013C00008008BD000000006C0000204054000846
:10014C0080B500AF00F0DEFB01E000F043F805489D
:10015C0003F02FFA0346002BF7D100F0E9FB002344
:10016C00184680BD007C000880B483B000AF034605
:10017C00FB80FB88B3F5805F03D0B3F5005F0BD039
:10018C001AE0104B01221A700F4B1B680E4A23F415
:10019C008053136000BF0FE00C4B01221A700C4B04
:1001AC001B78002B02D00A4B00221A70064B1B68DE
:1001BC00054A23F40053136000BF0C37BD4680BCC6
:1001CC00704700BF94000020000401409300002001
:1001DC009700002080B500AF174803F093F917483B
:1001EC0003F090F9164803F08DF900F041FD154825
:1001FC0003F08DFC0346002B1BD000F04FFB124B81
:10020C0000221A70104B1B789BB219460A4803F057
:10021C0095F90E4B1B789BB21946094803F08EF9E1
:10022C0004220849054803F0A1F94FF4FA7000F0D4
:10023C008DFD00BF80BD00BF007C00080080000861
:10024C00008400088400002095000020920000200B
:10025C0080B500AF114B00221A7003F08CFB00210B
:10026C00002003F039FB0E4803F070FB012106203F
:10027C0003F032FB0B4803F069FB0B4B00221A70A6
:10028C000A4B00221A700A4B00221A704FF40061BC
:10029C00084801F0FBF900BF80BD00BF91000020B1
:1002AC00585400086854000896000020970000205D
:1002BC00900000200008014080B500AF2A4B1B784D
:1002CC00013B032B4ED801A252F823F0E90200089F
:1002DC000B0300082D0300084F03000803F04BFB31
:1002EC000021002003F0F8FA204803F02FFB012135
:1002FC00002003F0F1FA1E4803F028FB32E003F073
:10030C003AFB0021002003F0E7FA1A4803F01EFB29
:10031C000121002003F0E0FA174803F017FB21E05D
:10032C0003F029FB0021002003F0D6FA134803F058
:10033C000DFB0121002003F0CFFA114803F006FB5E
:10034C0010E003F018FB0021002003F0C5FA0D4863
:10035C0003F0FCFA0121002003F0BEFA0A4803F076
:10036C00F5FA00BF00BF80BD91000020705400085A
:10037C00785400088854000890540008A0540008D1
:10038C00B0540008C4540008D454000880B500AF21
:10039C000E4B1B78013B032B16D801A252F823F00D
:1003AC00BD030008C3030008C9030008CF030008FD
:1003BC00FFF74EFF08E000F00BF805E000F00AF93B
:1003CC0002E000F00BFA00BF00BF80BD91000020DE
:1003DC0080B582B000AF6E496E4800F027FC6E4BC2
:1003EC001B686D4A43F48053136003F0C4FA0A206F
:1003FC0000F0ACFC0021012003F06EFA674803F01A
:10040C00A5FA0121012003F067FA654803F09EFA72
:10041C00AFE00023FB71634803F079FB0346002B2C
:10042C0000F0A78004225F49594804F073F8034692
:10043C00002B16D000233B602EE03B6803F5003305
:10044C0022339B025849184600F0F0FB0422554910
:10045C00554804F05FF80346002B1AD10123FB71B9
:10046C0000E000BF00F034FA03F085FA002102200E
:10047C0003F032FA4D4803F069FA0121022003F02F
:10048C002BFA4B4803F062FA4FF47A7000F05EFCE2
:10049C0008E03B6801333B60464B1B781A463B68CF
:1004AC009342CADBFB7983F00103DBB2002B3DD016
:1004BC00404B1B78022B39D804223A49344804F0BB
:1004CC0029F80346002B31D000F0E8F903F053FA79
:1004DC000021012003F000FA374803F037FA01211C
:1004EC00022003F0F9F9354803F030FA4FF47A7032
:1004FC0000F02CFC2F4B1B7803F5003322339B02AE
:10050C0004222849184603F031F82A4B1B78013392
:10051C00DAB2284B1A702A4802F0F4FF254B1B78EC
:10052C009BB21946264803F009F821E0FB7983F0C9
:10053C000103DBB2002B3FF458AF1E4B1B78032B8F
:10054C007FF453AF00F0C4F903F015FA002100203A
:10055C0003F0C2F91B4803F0F9F90121002003F064
:10056C00BBF9194803F0F2F94FF47A7000F0EEFB86
:10057C003BE7164B1B78002B7FF44BAF134B012240
:10058C001A70134B00221A7000BF0837BD4680BD8D
:10059C008C0000200080000800040140E854000892
:1005AC00F85400088400002088000020085500083A
:1005BC0018550008920000202455000834550008F6
:1005CC000084000840550008505500089700002092
:1005DC009400002080B584B000AF7049704800F0E2
:1005EC0025FB704B1B686F4A43F48053136003F078
:1005FC00C2F90A2000F0AAFB0021012003F06CF9DB
:10060C00694803F0A3F90023FB72B7E0674803F0D5
:10061C007EFA0346002B00F0B180042263495F4848
:10062C0003F078FF0346002B16D100F051F903F0CC
:10063C00A2F90021002003F04FF95D4803F086F980
:10064C000121002003F048F95A4803F07FF94FF4D8
:10065C007A7000F07BFBCAE700237B6018E07B68B4
:10066C0003F5003322339B025349184600F0DEFA9F
:10067C0004224E49504803F04DFF0346002B04D191
:10068C007B68FB600123FB7208E07B6801337B60B5
:10069C004A4B1B781A467B689342E0DBFB7A002BB3
:1006AC0055D0FB683B6025E03B6803F500332333F2
:1006BC009B024149184600F0B9FA3B6803F5003338
:1006CC0023339B02184602F01DFF3B6803F50033F1
:1006DC0022339B02184602F015FF3B6803F50033EA
:1006EC0022339B0204223449184602F03FFF3B6838
:1006FC0001333B60314B1B78013B3A689A42D3DBA8
:10070C0000F0CCF803F037F90021022003F0E4F8F4
:10071C002B4803F01BF90121022003F0DDF82948D6
:10072C0003F014F94FF47A7000F010FB234B1B7894
:10073C00013BDAB2214B1A70234802F0E3FE1F4B47
:10074C001B789BB21946204802F0F8FE4FE700F0E8
:10075C00BFF803F010F90021012003F0BDF81B488D
:10076C0003F0F4F80121012003F0B6F8184803F067
:10077C00EDF84FF47A7000F0E9FA38E7154B1B7876
:10078C00002B7FF443AF134B01221A70124B002243
:10079C001A7000BF1037BD4680BD00BF8C00002012
:1007AC00008000080004014064550008840000200B
:1007BC007455000884550008880000209200002021
:1007CC0094550008A455000800840008F85400084B
:1007DC00AC550008970000209400002080B582B032
:1007EC0000AF294B1B78002B16D100F071F803F0E9
:1007FC00C2F80021012003F06FF8244803F0A6F89A
:10080C000121012003F068F8214803F09FF84FF410
:10081C007A7000F09BFA33E000237B600AE07B687F
:10082C0003F5003322339B02184602F06BFE7B6803
:10083C0001337B60144B1B781A467B689342EEDBCA
:10084C00114B00221A70104B1B789BB219461148A1
:10085C0002F074FE00F022F803F08DF80021012064
:10086C0003F03AF80A4803F071F80121012003F073
:10087C0033F8094803F06AF84FF47A7000F066FA1E
:10088C0000BF0837BD4680BD92000020BC55000853
:10089C00C855000800840008D855000880B500AF82
:1008AC0002210A4800F0F2FE0421084800F0EEFE96
:1008BC004FF4C87000F04AFA0221044800F0E6FE3A
:1008CC000421024800F0E2FE00BF80BD0008014098
:1008DC0080B500AF01210A4800F0D8FE0421084879
:1008EC0000F0D4FE4FF4C87000F030FA0121044837
:1008FC0000F0CCFE0421024800F0C8FE00BF80BD11
:10090C000008014080B500AF00F0EEF903F0CFFA1B
:10091C0002F0A6FE02F0A6FF03F010FB03F05EFB54
:10092C0003F034F802F0B8FD02F05AFE00BF80BDAF
:10093C0080B582B000AF8D4802F03BFE0346DAB2C0
:10094C008B4B1A708B498C4800F070F903F013F83C
:10095C008A4B1B78002B0DD10021002002F0BCFF2C
:10096C00874802F0F3FF0121062002F0B5FF85480D
:10097C0002F0ECFF844803F0CAF80346002B00F0A9
:10098C009B80824B1B7883F00103DBB2002B00F0C1
:10099C00938004227C49774803F0BCFD0346002B6E
:1009AC0012D1FFF77BFF4FF40061794800F06EFE27
:1009BC00724B1B780133DAB2704B1A70734B0122F5
:1009CC001A70FFF779FC77E00023FB7100233B6082
:1009DC003FE03B6803F5003322339B026D49184618
:1009EC0000F024F9042268496A4803F093FD034699
:1009FC00002B07D0042264495E4803F08BFD0346AC
:100A0C00002B23D1FFF74AFF0123FB7102F0B3FF48
:100A1C000021002002F060FF5F4802F097FF0121E7
:100A2C00042002F059FF5D4802F090FF4FF4006182
:100A3C00574800F02BFE41F2883000F087F94FF454
:100A4C000061534800F022FE02F095FF3B68013331
:100A5C003B60474B1B781A463B689342B9DBFB79EA
:100A6C0083F00103DBB2002B26D0FFF731FF02F03D
:100A7C0082FF0021002002F02FFF474802F066FFA2
:100A8C000121032002F028FF454802F05FFF454B8F
:100A9C001B780133DAB2434B1A704FF47A7000F0C2
:100AAC0055F9404B1B78032B04D13E4B00221A7096
:100ABC0000F082F802F05FFF3B4B1B78002B1BD041
:100ACC00394B00221A70314B1B78002B0BD0374B53
:100ADC001B7883F00103DBB2002B04D0334B0122D3
:100AEC001A70FFF753FC0A2000F030F9304B1B68EA
:100AFC002F4A43F4805313602E4B1B78002B3FF48A
:100B0C0027AF2C4B00221A70204B1B78002B15D0D2
:100B1C00264B1B7883F00103DBB2002B0ED0174B56
:100B2C001B780133DAB2154B1A70144B1B78042B5B
:100B3C0002D9124B01221A70FFF7BEFB134B1B7824
:100B4C00002B08D0194B1B78002B04D0174B00221C
:100B5C001A70FFF7B1FB0A2000F0F8F8144B1B6871
:100B6C00134A43F400531360F2E600BF00840008FC
:100B7C00920000208C0000200080000891000020D2
:100B8C005854000868540008840000209600002087
:100B9C000008014088000020E4550008F4550008C6
:100BAC0000560008900000209400002097000020C0
:100BBC00000401409300002080B582B000AF02F029
:100BCC00DAFE0021002002F087FE154802F0BEFE7E
:100BDC000121002002F080FE124802F0B7FE3C23F7
:100BEC007B6014E03B467A680F49184603F09AFB89
:100BFC0001210C2002F070FE3B46184602F0A6FEC6
:100C0C004FF47A7000F0A2F87B68013B7B607B6844
:100C1C00002BE7DA00BF00BF0837BD4680BD00BF20
:100C2C000C560008205600083056000880B584B0D9
:100C3C0000AF78603960786802F0C7FCB8600023B8
:100C4C00FB730CE0FB7BDB00BA6822FA03F1FB7B45
:100C5C003A681344CAB21A70FB7B0133FB73FB7BFB
:100C6C00032BEFD900BF00BF1037BD4680BD00007D
:100C7C0080B500AF0021022002F02EFE054802F0E4
:100C8C0065FE0121022002F027FE034802F05EFE01
:100C9C0000BF80BD385600084456000880B500AF30
:100CAC0000F038F800BF80BD80B500AF0A4B5B691F
:100CBC0003F48053002B03D04FF4805000F000FD60
:100CCC00054B5B6903F40053002B03D04FF4005029
:100CDC0000F0F6FC00BF80BD0004014080B400AF02
:100CEC0000BFBD4680BC704780B500AF084B1B6889
:100CFC00074A43F010031360032000F0F5F80F20AF
:100D0C0002F08EFA00F0F4FC0023184680BD00BF00
:100D1C000020024080B400AF054B1B781A46054BEF
:100D2C001B681344034A136000BFBD4680BC704768
:100D3C00080000209800002080B400AF024B1B6814
:100D4C001846BD4680BC70479800002080B584B022
:100D5C0000AF7860FFF7F0FFB8607B68FB60FB6862
:100D6C00B3F1FF3F05D00A4B1B781A46FB681344BE
:100D7C00FB6000BFFFF7E0FF0246BB68D31AFA68BE
:100D8C009A42F7D800BF00BF1037BD4680BD00BFE8
:100D9C000800002080B485B000AF78607B6803F059
:100DAC000703FB600C4BDB68BB60BA684FF6FF03B4
:100DBC001340BB60FB681A02BB68134343F0BF636C
:100DCC0043F40033BB60044ABB68D36000BF1437E4
:100DDC00BD4680BC704700BF00ED00E080B400AFA2
:100DEC00044BDB681B0A03F007031846BD4680BCA6
:100DFC00704700BF00ED00E080B483B000AF034645
:100E0C00FB7197F90730002B0BDBFB7903F01F020A
:100E1C00064997F907305B09012000FA02F241F804
:100E2C00232000BF0C37BD4680BC704700E100E0BA
:100E3C0080B483B000AF03463960FB7197F907307B
:100E4C00002B0ADB3B68DAB20C4997F90730120128
:100E5C00D2B20B4483F800230AE03B68DAB20849AB
:100E6C00FB7903F00F03043B1201D2B20B441A7648
:100E7C0000BF0C37BD4680BC704700BF00E100E0EE
:100E8C0000ED00E080B489B000AFF860B9607A6022
:100E9C00FB6803F00703FB61FB69C3F10703042B39
:100EAC0028BF0423BB61FB690433062B02D9FB6901
:100EBC00033B00E000237B614FF0FF32BB6902FA79
:100ECC0003F3DA43BB681A407B699A404FF0FF3159
:100EDC007B6901FA03F3D9437B680B401343184633
:100EEC002437BD4680BC704780B582B000AF7860B7
:100EFC007868FFF74FFF00BF0837BD4680BD80B54F
:100F0C0086B000AF0346B9607A60FB7300237B6147
:100F1C00FFF764FF78617A68B9687869FFF7B2FF08
:100F2C00024697F90F3011461846FFF781FF00BFB4
:100F3C001837BD4680BD80B582B000AF0346FB714B
:100F4C0097F907301846FFF757FF00BF0837BD4623
:100F5C0080BD0000F0B587B000AFF860B960C7E99C
:100F6C0000230123FB750023BB7500237B752F4BDE
:100F7C001B7E012B01D1022354E02C4B01221A764B
:100F8C004CF2503000F0A8F80346FB75FB7D002BAB
:100F9C0044D1FB68012B02D101237B7507E0FB6870
:100FAC00022B02D102237B7501E004237B75002305
:100FBC00BB752DE0BB7D5A00BB6802EB030CBB7DFF
:100FCC001901D7E90023C1F12006A1F1200022FA72
:100FDC0001F403FA06F6344323FA00F0044323FA2F
:100FEC0001F5A3B21946604600F05AF84CF25030A5
:100FFC0000F072F80346FB750D4B1B690C4A23F08D
:10100C0001031361FB7D002B07D1BB7D0133BB7545
:10101C00BA7D7B7D9A42CDD300E000BF034B00220A
:10102C001A76FB7D18461C37BD46F0BDA00000208B
:10103C000020024080B483B000AF0023FB710D4B45
:10104C001B6903F08003002B0DD00A4B0A4A5A602F
:10105C00084B0A4A5A60074B1B6903F08003002BAC
:10106C0001D00123FB71FB7918460C37BD4680BCBF
:10107C00704700BF0020024023016745AB89EFCDCC
:10108C0080B400AF054B1B69044A43F08003136125
:10109C0000231846BD4680BC704700BF00200240AC
:1010AC0080B483B000AF78600B467B80084B002285
:1010BC00DA61084B1B69074A43F0010313617B6833
:1010CC007A881A8000BF0C37BD4680BC704700BFC1
:1010DC00A00000200020024080B584B000AF7860F2
:1010EC00FFF72AFEF86010E07B68B3F1FF3F0CD0ED
:1010FC007B68002B07D0FFF71FFE0246FB68D31A54
:10110C007A689A4201D2032325E0154BDB6803F081
:10111C000103002BE8D1124BDB6803F02003002BFA
:10112C0002D00F4B2022DA600D4BDB6803F010036A
:10113C00002B0BD10A4BDB6903F00103002B05D10B
:10114C00074BDB6803F00403002B03D000F00AF814
:10115C00012300E0002318461037BD4680BD00BFB8
:10116C000020024080B483B000AF00237B60234B8F
:10117C00DB6803F01003002B09D0214BDB6943F033
:10118C0002031F4AD3617B6843F010037B601B4B47
:10119C00DB6803F00403002B09D0194BDB6943F027
:1011AC000103174AD3617B6843F004037B60134B44
:1011BC00DB6903F00103002B0BD0114BDB6943F00F
:1011CC0004030F4AD3610D4BDB690C4A23F0010376
:1011DC00D3617B6840F20112934206D1074BDB6965
:1011EC00064A23F00103D36102E0044A7B68D36012
:1011FC0000BF0C37BD4680BC704700BF00200240CA
:10120C00A000002080B584B000AF78603960012365
:10121C00FB730023BB602F4B1B7E012B01D10223E0
:10122C0053E02C4B01221A767B681B68022B16D1DB
:10123C004CF25030FFF750FF0346002B41D10120F8
:10124C0000F04CF84CF25030FFF746FF0346FB73AE
:10125C00214B1B69204A23F00403136131E04CF24B
:10126C005030FFF739FF0346002B2AD13B684FF073
:10127C00FF321A607B689B68BB6019E0B86800F0AD
:10128C0049F84CF25030FFF727FF0346FB73124B23
:10129C001B69114A23F002031361FB7B002B03D063
:1012AC003B68BA681A600CE0BB6803F58063BB60EE
:1012BC007B68DB689A027B689B681344BA689A4225
:1012CC00DCD3044B00221A76FB7B18461037BD4644
:1012DC0080BD00BFA00000200020024080B483B07D
:1012EC0000AF7860094B0022DA61094B1B69084A90
:1012FC0043F004031361064B1B69054A43F040039A
:10130C00136100BF0C37BD4680BC7047A0000020A5
:10131C000020024080B483B000AF78600B4B0022F9
:10132C00DA610B4B1B690A4A43F002031361084A4A
:10133C007B685361064B1B69054A43F040031361FC
:10134C0000BF0C37BD4680BC704700BFA00000201A
:10135C000020024080B48BB000AF7860396000236D
:10136C007B6200233B6269E101227B6A02FA03F390
:10137C00FB613B681B68FA691340BB61BA69FB6986
:10138C009A4240F058813B685B689A4A93425ED01F
:10139C00984A934275D8984A934258D0964A9342A9
:1013AC006FD8964A934252D0944A934269D8944A41
:1013BC0093424CD0924A934263D8924A934246D07D
:1013CC00904A93425DD8122B2AD8122B59D801A2DD
:1013DC0052F823F05B140008351400084714000879
:1013EC00891400088F1400088F1400088F1400084B
:1013FC008F1400088F1400088F1400088F14000835
:10140C008F1400088F1400088F1400088F14000824
:10141C008F1400088F1400083D14000851140008A4
:10142C00794A934213D02CE03B68DB683B6229E09D
:10143C003B68DB6804333B6224E03B68DB680833C1
:10144C003B621FE03B68DB680C333B621AE03B6895
:10145C009B68002B02D104233B6213E03B689B6822
:10146C00012B05D108233B627B68FA691A6109E0FC
:10147C0008233B627B68FA695A6103E000233B62F4
:10148C0000E000BFBB69FF2B01D87B6801E07B68E3
:10149C0004337B61BB69FF2B02D87B6A9B0002E0A3
:1014AC007B6A083B9B003B617B691A680F213B6997
:1014BC0001FA03F3DB431A40396A3B6901FA03F37F
:1014CC001A437B691A603B685B6803F08053002BFE
:1014DC0000F0B1804D4B9B694C4A43F00103936182
:1014EC004A4B9B6903F00103BB60BB68484A7B6AAB
:1014FC009B08023352F82330FB607B6A03F0030332
:10150C009B000F2202FA03F3DB43FA681340FB60E3
:10151C007B68404A934213D07B683F4A93420DD07C
:10152C007B683E4A934207D07B683D4A934201D187
:10153C00032306E0042304E0022302E0012300E07D
:10154C0000237A6A02F0030292009340FA68134374
:10155C00FB602F497B6A9B080233FA6841F8232011
:10156C003B685B6803F48013002B06D02D4B9A6804
:10157C002C49BB6913438B6006E02A4B9A68BB6904
:10158C00DB43284913408B603B685B6803F4001312
:10159C00002B06D0234BDA682249BB691343CB607E
:1015AC0006E0204BDA68BB69DB431E491340CB6075
:1015BC003B685B6803F40033002B06D0194B5A6868
:1015CC001849BB6913434B6006E0164B5A68BB695C
:1015DC00DB43144913404B603B685B6803F4803376
:1015EC00002B21D00F4B1A680E49BB6913430B60BB
:1015FC0021E000BF0000321000003110000022106A
:10160C000000211000001210000011100010024008
:10161C000000014000080140000C01400010014096
:10162C0000140140000401400B4B1A68BB69DB43FA
:10163C00094913400B607B6A01337B623B681A6873
:10164C007B6A22FA03F3002B7FF48EAE00BF00BF3F
:10165C002C37BD4680BC70470004014080B483B079
:10166C0000AF78600B467B8013467B707B78002B39
:10167C0003D07A887B681A6103E07B881A047B6844
:10168C001A6100BF0C37BD4680BC704780B485B072
:10169C0000AF78600B467B807B68DB68FB607A88E8
:1016AC00FB6813401A04FB68D9437B880B401A4330
:1016BC007B681A6100BF1437BD4680BC70470000C0
:1016CC0080B582B000AF0346FB80084B5A69FB889B
:1016DC001340002B06D0054AFB885361FB88184643
:1016EC00FEF742FD00BF0837BD4680BD0004014037
:1016FC0080B400AF00BFBD4680BC704780B586B0DB
:10170C0000AF78607B68002B01D1012372E27B680B
:10171C001B6803F00103002B00F08780924B5B6881
:10172C0003F00C03042B0CD08F4B5B6803F00C0301
:10173C00082B12D18C4B5B6803F48033B3F5803FDC
:10174C000BD1894B1B6803F40033002B6CD07B68E6
:10175C005B68002B68D101234CE27B685B68B3F5B6
:10176C00803F06D1804B1B687F4A43F48033136063
:10177C002EE07B685B68002B0CD17B4B1B687A4A94
:10178C0023F480331360784B1B68774A23F480234F
:10179C0013601DE07B685B68B3F5A02F0CD1724B16
:1017AC001B68714A43F4802313606F4B1B686E4AAD
:1017BC0043F4803313600BE06B4B1B686A4A23F4D1
:1017CC0080331360684B1B68674A23F480231360D3
:1017DC007B685B68002B13D0FFF7AEFA386108E02A
:1017EC00FFF7AAFA02463B69D31A642B01D90323EB
:1017FC0000E25D4B1B6803F40033002BF0D014E0C7
:10180C00FFF79AFA386108E0FFF796FA02463B694F
:10181C00D31A642B01D90323ECE1534B1B6803F45B
:10182C000033002BF0D100E000BF7B681B6803F095
:10183C000203002B63D04C4B5B6803F00C03002BB2
:10184C000BD0494B5B6803F00C03082B1CD1464BA7
:10185C005B6803F48033002B16D1434B1B6803F0F9
:10186C000203002B05D07B681B69012B01D00123DF
:10187C00C0E13D4B1B6823F0F8027B685B69DB0021
:10188C00394913430B603AE07B681B69002B20D06D
:10189C00364B01221A60FFF74FFA386108E0FFF768
:1018AC004BFA02463B69D31A022B01D90323A1E15F
:1018BC002D4B1B6803F00203002BF0D02A4B1B6846
:1018CC0023F0F8027B685B69DB00274913430B604C
:1018DC0015E0264B00221A60FFF72EFA386108E05B
:1018EC00FFF72AFA02463B69D31A022B01D90323CC
:1018FC0080E11D4B1B6803F00203002BF0D17B68C9
:10190C001B6803F00803002B3AD07B689B69002B03
:10191C0019D0174B01221A60FFF70EFA386108E054
:10192C00FFF70AFA02463B69D31A022B01D90323AB
:10193C0060E10D4B5B6A03F00203002BF0D0012039
:10194C0000F0BAFA1CE00A4B00221A60FFF7F4F917
:10195C0038610FE0FFF7F0F902463B69D31A022B0E
:10196C0008D9032346E100BF0010024000004242A8
:10197C0080044242924B5B6A03F00203002BE9D1D4
:10198C007B681B6803F00403002B00F0A680002387
:10199C00FB758B4BDB6903F08053002B0DD1884B0F
:1019AC00DB69874A43F08053D361854BDB6903F0D5
:1019BC008053BB60BB680123FB75824B1B6803F42F
:1019CC008073002B18D17F4B1B687E4A43F48073C5
:1019DC001360FFF7B1F9386108E0FFF7ADF9024683
:1019EC003B69D31A642B01D9032303E1754B1B68A4
:1019FC0003F48073002BF0D07B68DB68012B06D1DD
:101A0C006F4B1B6A6E4A43F0010313622DE07B6837
:101A1C00DB68002B0CD16A4B1B6A694A23F001036B
:101A2C001362674B1B6A664A23F0040313621CE0C3
:101A3C007B68DB68052B0CD1614B1B6A604A43F059
:101A4C00040313625E4B1B6A5D4A43F0010313628D
:101A5C000BE05B4B1B6A5A4A23F001031362584B91
:101A6C001B6A574A23F0040313627B68DB68002B64
:101A7C0015D0FFF761F938610AE0FFF75DF902460E
:101A8C003B69D31A41F28832934201D90323B1E066
:101A9C004B4B1B6A03F00203002BEED014E0FFF754
:101AAC004BF938610AE0FFF747F902463B69D31A54
:101ABC0041F28832934201D903239BE0404B1B6ACD
:101ACC0003F00203002BEED1FB7D012B05D13C4B27
:101ADC00DB693B4A23F08053D3617B68DB69002BC5
:101AEC0000F08780364B5B6803F00C03082B61D049
:101AFC007B68DB69022B46D1334B00221A60FFF75F
:101B0C001BF9386108E0FFF717F902463B69D31A55
:101B1C00022B01D903236DE0294B1B6803F00073E2
:101B2C00002BF0D17B681B6AB3F5803F08D1244BA6
:101B3C005B6823F400327B689B68214913434B603C
:101B4C001F4B5B6823F474127B68196A7B685B6AB1
:101B5C000B431B4913434B601B4B01221A60FFF7CD
:101B6C00EBF8386108E0FFF7E7F802463B69D31A57
:101B7C00022B01D903233DE0114B1B6803F00073CA
:101B8C00002BF0D035E0104B00221A60FFF7D4F890
:101B9C00386108E0FFF7D0F802463B69D31A022BF4
:101BAC0001D9032326E0064B1B6803F00073002BBE
:101BBC00F0D11EE07B68DB69012B07D1012319E012
:101BCC000010024000700040600042420B4B5B680A
:101BDC00FB60FB6803F480327B681B6A9A4206D177
:101BEC00FB6803F470127B685B6A9A4201D0012394
:101BFC0000E0002318461837BD4680BD0010024097
:101C0C0080B584B000AF786039607B68002B01D15F
:101C1C000123D0E06A4B1B6803F007033A689A4231
:101C2C0010D9674B1B6823F0070265493B681343C7
:101C3C000B60634B1B6803F007033A689A4201D0B0
:101C4C000123B8E07B681B6803F00203002B20D053
:101C5C007B681B6803F00403002B05D0594B5B68B1
:101C6C00584A43F4E06353607B681B6803F0080335
:101C7C00002B05D0534B5B68524A43F460535360BE
:101C8C00504B5B6823F0F0027B689B684D49134313
:101C9C004B607B681B6803F00103002B40D07B6812
:101CAC005B68012B07D1474B1B6803F40033002BF7
:101CBC0015D101237FE07B685B68022B07D1414B78
:101CCC001B6803F00073002B09D1012373E03D4B1B
:101CDC001B6803F00203002B01D101236BE0394B8D
:101CEC005B6823F003027B685B68364913434B60E7
:101CFC00FFF722F8F8600AE0FFF71EF80246FB68CF
:101D0C00D31A41F28832934201D9032353E02D4B6D
:101D1C005B6803F00C027B685B689B009A42EBD11A
:101D2C00274B1B6803F007033A689A4210D2244BE6
:101D3C001B6823F0070222493B6813430B60204BBE
:101D4C001B6803F007033A689A4201D0012332E082
:101D5C007B681B6803F00403002B08D0194B5B68ED
:101D6C0023F4E0627B68DB68164913434B607B68A5
:101D7C001B6803F00803002B09D0124B5B6823F49B
:101D8C0060527B681B69DB000E4913434B6000F00B
:101D9C0021F802460B4B5B681B0903F00F030A4941
:101DAC00CB5C22FA03F3094A1360094B1B681846F3
:101DBC0001F036FA002318461037BD4680BD00BF2F
:101DCC000020024000100240645600080000002071
:101DDC000400002080B487B000AF0023FB60002318
:101DEC00BB6000237B6100237B6000233B611E4BA7
:101DFC005B68FB60FB6803F00C03042B02D0082B20
:101E0C0003D027E0194B3B6127E0FB689B0C03F0E8
:101E1C000F03174AD35C7B60FB6803F48033002B01
:101E2C0010D0114B5B685B0C03F00103114AD35CBF
:101E3C00BB607B680D4A03FB02F2BB68B2FBF3F399
:101E4C007B6104E07B680C4A02FB03F37B617B69DA
:101E5C003B6102E0054B3B6100BF3B6918461C37F8
:101E6C00BD4680BC704700BF0010024000127A00D3
:101E7C007C5600088C56000800093D0080B400AF69
:101E8C00024B1B681846BD4680BC70470000002002
:101E9C0080B500AFFFF7F2FF0246054B5B68DB0A2B
:101EAC0003F007030349CB5C22FA03F3184680BD09
:101EBC00001002407456000880B485B000AF786002
:101ECC000A4B1B680A4AA2FB03235B0A7A6802FBD3
:101EDC0003F3FB6000BFFB685A1EFA60002BF9D1BC
:101EEC0000BF00BF1437BD4680BC70470000002007
:101EFC00D34D621080B586B000AF786000233B6193
:101F0C000023FB607B681B6803F00103002B7DD072
:101F1C000023FB754F4BDB6903F08053002B0DD175
:101F2C004C4BDB694B4A43F08053D361494BDB6923
:101F3C0003F08053BB60BB680123FB75464B1B68E9
:101F4C0003F48073002B18D1434B1B68424A43F4B3
:101F5C0080731360FEF7F0FE386108E0FEF7ECFECC
:101F6C0002463B69D31A642B01D903236DE03A4B2B
:101F7C001B6803F48073002BF0D0364B1B6A03F400
:101F8C004073FB60FB68002B2ED07B685B6803F40E
:101F9C004073FA689A4227D02E4B1B6A23F4407385
:101FAC00FB602E4B01221A602C4B00221A60294A2E
:101FBC00FB681362FB6803F00103002B14D0FEF7DF
:101FCC00BBFE38610AE0FEF7B7FE02463B69D31A46
:101FDC0041F28832934201D9032336E01D4B1B6A30
:101FEC0003F00203002BEED01A4B1B6A23F4407251
:101FFC007B685B68174913430B62FB7D012B05D192
:10200C00144BDB69134A23F08053D3617B681B6844
:10201C0003F00203002B08D00E4B5B6823F4404204
:10202C007B689B680B4913434B607B681B6803F010
:10203C001003002B08D0074B5B6823F480027B68ED
:10204C00DB68044913434B60002318461837BD4620
:10205C0080BD00BF001002400070004040044242AE
:10206C0080B588B000AF786000237B610023FB61F2
:10207C0000233B610023FB600023BB617B68102BBA
:10208C000AD07B68102B00F28A807B68012B45D02C
:10209C007B68022B75D082E0464B5B68FB60454B3E
:1020AC001B6803F08073002B7BD0FB689B0C03F048
:1020BC000F03414AD35C3B61FB6803F48033002B74
:1020CC0015D03C4B5B685B0C03F001033B4AD35CC3
:1020DC007B61FB6803F48033002B0DD0384A7B699D
:1020EC00B2FBF3F23B6902FB03F3FB6104E03B69D7
:1020FC00344A02FB03F3FB612E4B5B6803F4800351
:10210C00B3F5800F02D1FB69BB614AE0FB695B0050
:10211C002D4AA2FB03235B08BB6142E0254B1B6AE3
:10212C00FB60FB6803F44073B3F5807F08D1FB6858
:10213C0003F00203002B03D04FF40043BB611FE0FC
:10214C00FB6803F44073B3F5007F09D1194B5B6A4C
:10215C0003F00203002B03D049F64043BB610FE0B0
:10216C00FB6803F44073B3F5407F1CD1114B1B6823
:10217C0003F40033002B16D04FF22443BB6112E062
:10218C0011E0FFF785FE02460A4B5B689B0B03F0E0
:10219C00030301335B00B2FBF3F3BB6104E000BF4C
:1021AC0002E000BF00E000BFBB6918462037BD4607
:1021BC0080BD00BF0010024090560008A0560008D9
:1021CC0000127A0000093D00ABAAAAAA80B584B01F
:1021DC0000AF78600023FB607B68002B01D10123EA
:1021EC007AE07B685B7CDBB2002B05D17B6800223C
:1021FC001A74786800F076F87B6802225A74786852
:10220C0000F0A4F80346002B04D07B6804225A7417
:10221C00012361E0786800F0C6F80346002B04D077
:10222C007B6804225A74012356E07B681B685A6849
:10223C007B681B6822F007025A607B689B68002B46
:10224C0005D0274B1B6B264A23F001031363244B49
:10225C00DB6A23F460727B689B6821491343CB6271
:10226C007B685B68B3F1FF3F03D07B685B68FB6006
:10227C000EE00120FFF7F4FEF860FB68002B04D1A0
:10228C007B6804225A74012326E0FB68013BFB6047
:10229C00FB681A0C7B681B6802F00F029A607B6863
:1022AC001B68FA6892B2DA60786800F0A4F803460A
:1022BC00002B04D07B6804225A7401230CE07B6849
:1022CC000022DA737B6801225A737B6801229A73AD
:1022DC007B6801225A74002318461037BD4680BD16
:1022EC00006C004080B483B000AF786000BF0C3746
:1022FC00BD4680BC7047000080B582B000AF7860EE
:10230C007B681B681B6803F00203002B11D07B68F1
:10231C001B685B6803F00203002B0AD0786801F09D
:10232C006BF87B681B685A687B681B6822F002029A
:10233C005A60054B4FF400325A617B6801225A7483
:10234C0000BF0837BD4680BD0004014080B584B095
:10235C0000AF78600023FB607B68002B01D1012368
:10236C001DE07B681B685A687B681B6822F00802BA
:10237C005A60FEF7E1FCF86009E0FEF7DDFC02466E
:10238C00FB68D31AB3F57A7F01D9032307E07B6886
:10239C001B685B6803F00803002BEED00023184683
:1023AC001037BD4680BD80B584B000AF7860002387
:1023BC00FB60FEF7C1FCF86009E0FEF7BDFC0246CD
:1023CC00FB68D31AB3F57A7F01D903230FE07B683E
:1023DC001B685B6803F02003002BEED07B681B6846
:1023EC005A687B681B6842F010025A60002318463A
:1023FC001037BD4680BD80B584B000AF7860002337
:10240C00FB607B681B685A687B681B6822F01002B3
:10241C005A60FEF791FCF86009E0FEF78DFC02466D
:10242C00FB68D31AB3F57A7F01D9032307E07B68E5
:10243C001B685B6803F02003002BEED000231846CA
:10244C001037BD4680BD80B582B000AF78607B6828
:10245C00002B01D101237EE07B685B6A002B08D145
:10246C007B685B68B3F5827F09D07B680022DA61F8
:10247C0005E07B6800221A617B6800225A617B6848
:10248C0093F85130DBB2002B06D17B68002283F825
:10249C005020786800F063F87B68022283F85120A2
:1024AC007B681B681A687B681B6822F040021A6004
:1024BC007B685B6803F482727B689B6803F404435B
:1024CC001A437B68DB6803F400631A437B681B695F
:1024DC0003F002031A437B685B6903F001031A43A0
:1024EC007B689B6903F400731A437B68DB6903F018
:1024FC0038031A437B681B6A03F0800342EA03012A
:10250C007B689B6A03F400527B681B680A431A6061
:10251C007B689B691A0C7B681B6802F004025A608A
:10252C007B689B6AB3F5005F05D17B68DA6A7B68D0
:10253C001B6892B21A617B681B68DA697B681B683E
:10254C0022F40062DA617B6800225A657B68012202
:10255C0083F85120002318460837BD4680BD80B44F
:10256C0083B000AF786000BF0C37BD4680BC7047AD
:10257C0080B588B000AFF860B9603B601346FB8053
:10258C000023FB77FB6893F85030012B01D1022319
:10259C004FE1FB68012283F85020FEF7CDFBB861B8
:1025AC00FB88FB82FB6893F85130DBB2012B02D025
:1025BC000223FB7738E1BB68002B02D0FB88002B91
:1025CC0002D10123FB772FE1FB68032283F8512012
:1025DC00FB6800225A65FB68BA681A63FB68FA88C4
:1025EC009A86FB68FA88DA86FB6800229A63FB6895
:1025FC0000229A87FB680022DA87FB6800225A6463
:10260C00FB6800221A64FB689B68B3F5004F0FD17E
:10261C00FB681B681A68FB681B6822F040021A6092
:10262C00FB681B681A68FB681B6842F480421A60DE
:10263C00FB689B6AB3F5005F0FD1FB681B681A68D7
:10264C00FB681B6822F400521A60FB681B681A684E
:10265C00FB681B6842F400521A60FB681B681B681D
:10266C0003F04003402B07D0FB681B681A68FB681B
:10267C001B6842F040021A60FB68DB68B3F5006F20
:10268C004FD1FB685B68002B02D0FB8A012B42D137
:10269C00FB681B6B1A88FB681B68DA60FB681B6B9A
:1026AC009A1CFB681A63FB68DB8E9BB2013B9AB2E7
:1026BC00FB68DA862FE0FB681B689B6803F002035B
:1026CC00022B12D1FB681B6B1A88FB681B68DA6043
:1026DC00FB681B6B9A1CFB681A63FB68DB8E9BB256
:1026EC00013B9AB2FB68DA8615E0FEF725FB024641
:1026FC00BB69D31A3A689A4203D83B68B3F1FF3FDF
:10270C0002D13B68002B06D10323FB77FB68012227
:10271C0083F8512088E0FB68DB8E9BB2002BCAD17A
:10272C0050E0FB685B68002B02D0FB8A012B44D184
:10273C00FB681A6BFB681B680C3312781A70FB6809
:10274C001B6B5A1CFB681A63FB68DB8E9BB2013B4C
:10275C009AB2FB68DA8630E0FB681B689B6803F072
:10276C000203022B13D1FB681A6BFB681B680C333A
:10277C0012781A70FB681B6B5A1CFB681A63FB6897
:10278C00DB8E9BB2013B9AB2FB68DA8615E0FEF752
:10279C00D3FA0246BB69D31A3A689A4203D83B680B
:1027AC00B3F1FF3F02D13B68002B06D10323FB772B
:1027BC00FB68012283F8512036E0FB68DB8E9BB26C
:1027CC00002BC9D1FB689B6AB3F5005F07D1FB688E
:1027DC001B681A68FB681B6842F480521A60BA695D
:1027EC003968F86800F0F4FC0346002B02D0FB6853
:1027FC0020225A65FB689B68002B0AD100233B61A1
:10280C00FB681B68DB683B61FB681B689B683B6172
:10281C003B69FB685B6D002B02D00123FB7703E067
:10282C00FB68012283F85120FB68002283F85020BA
:10283C00FB7F18462037BD4680BD80B58AB002AFFD
:10284C00F860B9603B601346FB8000237B6100237A
:10285C00FB77FB6893F85130DBB2012B02D00223DB
:10286C00FB7799E1FB685B68B3F5827F12D1FB685B
:10287C009B68002B0ED1FB68042283F85120FA8848
:10288C003B6800931346BA68B968F86800F08DF994
:10289C00034686E1FB6893F85030012B01D10223EB
:1028AC007FE1FB68012283F85020FEF745FAB861FE
:1028BC00BB68002B02D0FB88002B02D10123FB77D5
:1028CC006AE1FB68042283F85120FB6800225A65F8
:1028DC00FB68BA689A63FB68FA889A87FB68FA887F
:1028EC00DA87FB6800221A63FB6800229A86FB6871
:1028FC000022DA86FB6800221A64FB6800225A6404
:10290C00FB689B6AB3F5005F16D1FB681B681A68FD
:10291C00FB681B6822F400521A60FB681B681A687B
:10292C00FB681B6842F400521A60FB68DB8F9BB299
:10293C00013B9AB2FB68DA87FB689B68B3F5004FE2
:10294C000FD1FB681B681A68FB681B6822F04002F9
:10295C001A60FB681B681A68FB681B6822F48042CB
:10296C001A60FB681B681B6803F04003402B07D000
:10297C00FB681B681A68FB681B6842F040021A600F
:10298C00FB68DB68002B6AD132E0FB681B689B6834
:10299C0003F00103012B15D1FB681B6803F10C023A
:1029AC00FB689B6B1278D2B21A70FB689B6B5A1C3B
:1029BC00FB689A63FB68DB8F9BB2013B9AB2FB68A6
:1029CC00DA8715E0FEF7B8F90246BB69D31A3A6804
:1029DC009A4203D83B68B3F1FF3F02D13B68002B0E
:1029EC0006D10323FB77FB68012283F85120D3E047
:1029FC00FB68DB8F9BB2002BC7D135E0FB681B68F3
:102A0C009B6803F00103012B13D1FB681B68DA6888
:102A1C00FB689B6B92B21A80FB689B6B9A1CFB68E1
:102A2C009A63FB68DB8F9BB2013B9AB2FB68DA8737
:102A3C0015E0FEF781F90246BB69D31A3A689A424F
:102A4C0003D83B68B3F1FF3F02D13B68002B06D1A2
:102A5C000323FB77FB68012283F851209CE0FB6881
:102A6C00DB8F9BB2002BC9D1FB689B6AB3F5005F6F
:102A7C0053D1FB681B681A68FB681B6842F48052D0
:102A8C001A60FB681B681B6803F48053002B07D08B
:102A9C00FB681B681A68FB681B6822F480521A607A
:102AAC00BB6900933B6801220121F86800F0B6FA7B
:102ABC000346002B02D00323FB776DE0FB68DB6839
:102ACC00B3F5006F07D1FB681B68DA68FB689B6B7A
:102ADC0092B21A8008E0FB681B6803F10C02FB68D9
:102AEC009B6B1278D2B21A70BB6900933B680122BF
:102AFC000121F86800F092FA0346002B08D0FB681D
:102B0C005B6D43F00202FB685A650323FB7743E0DD
:102B1C00FB681B68DB687B617B69BA693968F8689C
:102B2C0000F004FB0346002B02D0FB6820225A6500
:102B3C00FB681B689B6803F01003102B21D1F8680D
:102B4C0000F064FB0346012B16D1FB685B6D43F070
:102B5C000202FB685A65FB681B681A68FB681B68F5
:102B6C0022F400521A60FB681B681A68FB681B6829
:102B7C0042F400521A6004E0FB681B684FF6EF72D7
:102B8C009A60FB685B6D002B02D00123FB7703E09E
:102B9C00FB68012283F85120FB68002283F8502047
:102BAC00FB7F18462037BD4680BD80B58EB002AF86
:102BBC00F860B9607A607B8000237B610123FB6243
:102BCC00002387F82B30FB6893F85030012B01D190
:102BDC0002231EE2FB68012283F85020FEF7ACF8BA
:102BEC007862FB6893F8513087F82330FB685B6898
:102BFC00FB617B887B8397F82330012B0FD0FB691B
:102C0C00B3F5827F07D1FB689B68002B03D197F843
:102C1C002330042B03D0022387F82B30F3E1BB685D
:102C2C00002B05D07B68002B02D07B88002B03D1B6
:102C3C00012387F82B30E6E1FB6893F85130DBB2C7
:102C4C00042B03D0FB68052283F85120FB6800227B
:102C5C005A65FB687A689A63FB687A88DA87FB683E
:102C6C007A889A87FB68BA681A63FB687A88DA866E
:102C7C00FB687A889A86FB6800221A64FB6800223B
:102C8C005A64FB689B6AB3F5005F0FD1FB681B6845
:102C9C001A68FB681B6822F400521A60FB681B68F8
:102CAC001A68FB681B6842F400521A60FB681B68C8
:102CBC001B6803F04003402B07D0FB681B681A68A5
:102CCC00FB681B6842F040021A60FB68DB68B3F5D6
:102CDC00006F40F08F80FB685B68002B02D07B8B11
:102CEC00012B7CD1FB681B6B1A88FB681B68DA60B4
:102CFC00FB681B6B9A1CFB681A63FB68DB8E9BB230
:102D0C00013B9AB2FB68DA8669E0FB681B689B683A
:102D1C0003F00203022B2DD1FB68DB8E9BB2002B40
:102D2C0028D0FB6A012B25D1FB681B6B1A88FB682A
:102D3C001B68DA60FB681B6B9A1CFB681A63FB68E8
:102D4C00DB8E9BB2013B9AB2FB68DA860023FB62F6
:102D5C00FB68DB8E9BB2002B0CD1FB689B6AB3F536
:102D6C00005F07D1FB681B681A68FB681B6842F49C
:102D7C0080521A60FB681B689B6803F00103012BEF
:102D8C0019D1FB68DB8F9BB2002B14D0FB681B683E
:102D9C00DA68FB689B6B92B21A80FB689B6B9A1C7F
:102DAC00FB689A63FB68DB8F9BB2013B9AB2FB68B2
:102DBC00DA870123FB62FDF7BFFF02467B6AD31A59
:102DCC00BA6B9A420BD8BB6BB3F1FF3F07D003230E
:102DDC0087F82B30FB68012283F8512013E1FB6844
:102DEC00DB8E9BB2002B90D1FB68DB8F9BB2002B50
:102DFC008BD193E0FB685B68002B03D07B8B012BA2
:102E0C0040F08280FB681A6BFB681B680C331278ED
:102E1C001A70FB681B6B5A1CFB681A63FB68DB8E11
:102E2C009BB2013B9AB2FB68DA866DE0FB681B68CB
:102E3C009B6803F00203022B2ED1FB68DB8E9BB246
:102E4C00002B29D0FB6A012B26D1FB681A6BFB687F
:102E5C001B680C3312781A70FB681B6B5A1CFB68CE
:102E6C001A63FB68DB8E9BB2013B9AB2FB68DA8675
:102E7C000023FB62FB68DB8E9BB2002B0CD1FB6842
:102E8C009B6AB3F5005F07D1FB681B681A68FB6887
:102E9C001B6842F480521A60FB681B689B6803F045
:102EAC000103012B19D1FB68DB8F9BB2002B14D0D3
:102EBC00FB681B68DA68FB689B6BD2B21A70FB6804
:102ECC009B6B5A1CFB689A63FB68DB8F9BB2013BC4
:102EDC009AB2FB68DA870123FB62FDF72DFF0246ED
:102EEC007B6AD31ABA6B9A4203D8BB6BB3F1FF3F20
:102EFC0002D1BB6B002B07D1032387F82B30FB6867
:102F0C00012283F851207EE0FB68DB8E9BB2002B04
:102F1C008CD1FB68DB8F9BB2002B87D1FB689B6A43
:102F2C00B3F5005F19D17B6A0093BB6B01220121C1
:102F3C00F86800F073F80346002B09D0FB685B6D52
:102F4C0043F00202FB685A65032387F82B305AE0E2
:102F5C00FB681B68DB687B617B69FB681B689B6893
:102F6C0003F01003102B24D1F86800F04FF903463E
:102F7C00012B19D1FB685B6D43F00202FB685A65AB
:102F8C00FB681B681A68FB681B6822F400521A6005
:102F9C00FB681B681A68FB681B6842F400521A60D5
:102FAC00012387F82B3004E0FB681B684FF6EF72A7
:102FBC009A607A6AB96BF86800F00AF90346002B3C
:102FCC0006D0012387F82B30FB6820225A651AE0C3
:102FDC00FB689B68002B0AD100233B61FB681B68D4
:102FEC00DB683B61FB681B689B683B613B69FB686A
:102FFC005B6D002B03D0012387F82B3003E0FB68BB
:10300C00012283F85120FB68002283F8502097F8A6
:10301C002B3018463037BD4680BD000080B588B0D7
:10302C0000AFF860B9603B601346FB71FDF784FE9E
:10303C000246BB6A9B1A3A681344FB61FDF77CFE9F
:10304C00B861394B1B685B011B0DFA6902FB03F37A
:10305C007B6154E03B68B3F1FF3F50D0FDF76CFE51
:10306C000246BB69D31AFA699A4202D9FB69002B52
:10307C003DD1FB681B685A68FB681B6822F0E002B4
:10308C005A60FB685B68B3F5827F11D1FB689B6863
:10309C00B3F5004F04D0FB689B68B3F5806F07D184
:1030AC00FB681B681A68FB681B6822F040021A60F8
:1030BC00FB689B6AB3F5005F0FD1FB681B681A684D
:1030CC00FB681B6822F400521A60FB681B681A68C4
:1030DC00FB681B6842F400521A60FB68012283F8FB
:1030EC005120FB68002283F85020032317E07B69F2
:1030FC00002B01D10023FB617B69013B7B61FB68E9
:10310C001B689A68BB681340BA689A420CBF0123CB
:10311C000023DBB21A46FB799A429BD10023184656
:10312C002037BD4680BD00BF0000002080B586B0B2
:10313C0002AFF860B9607A60FB685B68B3F5827FB8
:10314C0011D1FB689B68B3F5004F04D0FB689B68FA
:10315C00B3F5806F07D1FB681B681A68FB681B68A6
:10316C0022F040021A60FB685B68B3F5827F17D1CE
:10317C00FB689B68B3F5806F12D17B680093BB68CA
:10318C0000220121F868FFF749FF0346002B1AD0F3
:10319C00FB685B6D43F02002FB685A65032313E068
:1031AC007B680093BB6800228021F868FFF736FF2C
:1031BC000346002B07D0FB685B6D43F02002FB68D5
:1031CC005A65032300E0002318461037BD4680BD26
:1031DC0080B586B002AFF860B9607A607B68009306
:1031EC00BB6800228021F868FFF718FF0346002B0C
:1031FC0007D0FB685B6D43F02002FB685A65032324
:10320C0000E0002318461037BD4680BD80B483B063
:10321C0000AF7860012318460C37BD4680BC704760
:10322C0080B592B000AF786000233B640123BB6192
:10323C0000237B634FF48033FB614FF44073FB60DE
:10324C0007F118031846FEF759FA034687F847307A
:10325C0097F84730002B27D10123BB6007F10803F7
:10326C001846FEF747FE034687F8473097F8473075
:10327C00002B19D1584B01221A60584B584A1A602E
:10328C000120FEF7EDFE0346564AA2FB03235B0B1F
:10329C00013B524A5360514B00229A604F48FEF753
:1032AC0095FF034687F8473097F84730002B27D116
:1032BC004A4B1B685A68494B1B6842F010025A6013
:1032CC00464B1B685A68454B1B6822F002025A6039
:1032DC0000233B640DE03B6C5A1C3A64424A126872
:1032EC004249A1FB02125209934202D1012387F8F1
:1032FC0047303A4B1B685B6803F00203002BEAD1A2
:10330C0097F84730002B4BD1344B1B6800221A62C4
:10331C00324B1B6809225A62354B1B68344A43F402
:10332C0000331360324B9B68314A43F40033936093
:10333C002A4B1B685A68294B1B6822F005025A60FD
:10334C00264B1B6800229A61244B1B680022DA6111
:10335C00224B1B681A68214B1B6842F002021A6050
:10336C001E4B1B685A681D4B1B6822F010025A60DA
:10337C0000233B640DE03B6C5A1C3A641A4A1268F9
:10338C001A49A1FB02125209934202D1012387F878
:10339C004730124B1B685B6803F02003002BEAD00C
:1033AC0097F84730002B11D12920FDF7C4FD7B681D
:1033BC000F2B08D8002279682920FDF7A0FD0D4AB3
:1033CC007B68136002E0012387F8473097F8473099
:1033DC0018464837BD4680BD3C044242C000002020
:1033EC00002800405917B7D100000020ABAAAAAAA8
:1033FC00000401400400002080B584B000AF786068
:10340C000023FB60FDF786FC7B681B685A687B68B1
:10341C001B6842F010025A607B681B6800229A619C
:10342C007B681B680022DA617B681B685A687B68C2
:10343C001B6822F005025A607B681B685A687B681F
:10344C001B6822F010025A600AE0FB685A1CFA60F2
:10345C000A4A12680A49A1FB02125209934207D088
:10346C007B681B685B6803F02003002BEDD000E049
:10347C0000BF00BF1037BD4680BD00BF000000205C
:10348C00ABAAAAAA80B500AF0248FEF735FF00BF71
:10349C0080BD00BFC000002080B586B000AF07F132
:1034AC00080300221A605A609A60DA60124B9B691A
:1034BC00114A43F0080393610F4B9B6903F0080317
:1034CC007B607B684FF44053BB600C4BFB6002236A
:1034DC007B6107F1080319460948FDF73BFF002201
:1034EC0000212820FDF70BFD2820FDF724FD00BF4F
:1034FC001837BD4680BD00BF0010024000002110EF
:10350C00000C014080B588B000AF7860FDF792FDEB
:10351C0001237B610123FB617B68BB6100233B6161
:10352C0007F10C0207F1100311461846FDF76AFE6D
:10353C00FDF7A6FD00BF2037BD4680BDB0B582B0FB
:10354C0000AF78600B467B80FDF774FD7B88002212
:10355C001C46154622462B4679680120FDF7FAFCDD
:10356C00FDF78EFD00BF0837BD46B0BD80B586B0F7
:10357C0000AFF860B9601346FB80FDF75BFD0023DC
:10358C00FB820CE0FA8AFB68D018FB8ABA681344F9
:10359C001B881946FFF7D2FFFB8A0233FB82FA8A9B
:1035AC00FB889A42EED3FDF76BFD00BF1837BD4682
:1035BC0080BD80B483B000AF78607B681B889BB201
:1035CC0018460C37BD4680BC704780B483B000AF42
:1035DC0078607B681B6818460C37BD4680BC70470A
:1035EC0080B586B000AF07F1080300221A605A605C
:1035FC009A60DA60184B9B69174A43F00403936195
:10360C00154B9B6903F004037B607B6840F6070352
:10361C00BB600123FB6002237B6107F108031946A1
:10362C000E48FDF797FE002201210C48FEF716F814
:10363C00002202210948FEF711F800224FF4006124
:10364C000648FEF70BF8002204210448FEF706F8A2
:10365C0000BF1837BD4680BD001002400008014075
:10366C0080B586B000AF214B9B69204A43F0040320
:10367C0093611E4B9B6903F004037B607B681B4BBF
:10368C009B691A4A43F008039361184B9B6903F03A
:10369C0008033B603B684FF44073BB600123FB6045
:1036AC0003237B6107F1080319461148FDF752FE0D
:1036BC0040F60343BB600123FB6003237B6107F1EE
:1036CC00080319460B48FDF745FE00224FF44071E4
:1036DC000748FDF7C3FF002240F603410548FDF7FC
:1036EC00BDFF00BF1837BD4680BD00BF00100240B3
:1036FC0000080140000C014080B584B000AF0346C7
:10370C000A46FB711346BB71FB791B09FB73FB79F2
:10371C00BB73BB79002B06D100224FF480714F484C
:10372C00FDF79CFF08E0BB79012B05D101224FF47A
:10373C0080714A48FDF792FFFB7B03F00103DBB27B
:10374C001A4601214648FDF789FFFB7B5B08DBB27B
:10375C0003F00103DBB21A4602214148FDF77EFF5C
:10376C00FB7B9B08DBB203F00103DBB21A464FF480
:10377C0080613B48FDF772FFFB7BDB08DBB203F09B
:10378C000103DBB21A464FF400613548FDF766FFC2
:10379C0000224FF400713148FDF760FF0120FDF766
:1037AC00D5FA01224FF400712C48FDF757FF012088
:1037BC00FDF7CCFA00224FF400712848FDF74EFFBC
:1037CC000120FDF7C3FABB7B03F00103DBB21A4601
:1037DC0001212348FDF742FFBB7B5B08DBB203F002
:1037EC000103DBB21A4602211D48FDF737FFBB7BF4
:1037FC009B08DBB203F00103DBB21A464FF4806185
:10380C001748FDF72BFFBB7BDB08DBB203F0010392
:10381C00DBB21A464FF400611148FDF71FFF00227E
:10382C004FF400710D48FDF719FF0120FDF78EFADA
:10383C0001224FF400710948FDF710FF0120FDF73C
:10384C0085FA00224FF400710448FDF707FF0120B0
:10385C00FDF77CFA00BF1037BD4680BD0008014063
:10386C00000C014080B500AF9620FDF76FFA0021E7
:10387C003320FFF741FF3220FDF768FA0021332097
:10388C00FFF73AFF3220FDF761FA00213220FFF7F3
:10389C0033FF3220FDF75AFA00212820FFF72CFFC6
:1038AC0000210120FFF728FF0220FDF74FFA00212D
:1038BC000C20FFF721FF00210620FFF71DFF002140
:1038CC000120FFF719FF0220FDF740FA002102202A
:1038DC00FFF712FF00BF80BD80B584B000AF034678
:1038EC000A46FB711346BB710023FB730F4BBB6085
:1038FC00FB790F2B01D90F23FB71BB79012B01D95C
:10390C000223BB71BB7910333B4413F8082CFB79B1
:10391C001344FB73FB7B63F07F03DBB2002118467F
:10392C00FFF7EAFE00BF1037BD4680BD00401454BF
:10393C0080B582B000AF0346FB71FB7901211846BC
:10394C00FFF7DAFE00BF0837BD4680BD80B582B0F8
:10395C0000AF786006E07B685A1C7A601B781846CA
:10396C00FFF7E6FF7B681B78002BF4D100BF00BF8C
:10397C000837BD4680BD80B500AF00210120FFF7A0
:10398C00BBFE0520FDF7E2F900BF80BD80B500AF9E
:10399C0000F0A0F880212A2000F042F8A9212B2069
:1039AC0000F03EF8E8212D2000F03AF803212C20FD
:1039BC0000F036F84021152000F032F83D2111209E
:1039CC0000F02EF800F08EF800BF80BD80B584B0FA
:1039DC0000AF0346FB7100F049FBFB795B005BB267
:1039EC0003F07E035BB263F07F035BB2DBB2FB716F
:1039FC00F91D642301220948FEF7BAFD0023FB736D
:103A0C0007F10F01642301220448FEF716FF00F0B2
:103A1C0039FBFB7B18461037BD4680BDD400002017
:103A2C0080B584B000AF03460A46FB711346BB71E8
:103A3C0000F01CFBFB795B00DBB203F07E03DBB216
:103A4C003B73BB797B7307F10C016423022204489E
:103A5C00FEF78EFD00F016FB00BF1037BD4680BD93
:103A6C00D400002080B582B000AF03460A46FB713B
:103A7C001346BB71FB791846FFF7A8FF03461A469D
:103A8C00BB791343DAB2FB7911461846FFF7C8FF2E
:103A9C0000BF0837BD4680BD80B582B000AF03467D
:103AAC000A46FB711346BB71FB791846FFF78EFF74
:103ABC0003465AB297F90630DB435BB213405BB254
:103ACC00DAB2FB7911461846FFF7AAFF00BF083798
:103ADC00BD4680BD80B500AF0F210120FFF7A0FFD0
:103AEC0000BF80BD80B582B000AF1420FFF76EFF21
:103AFC000346FB71FB7903F00303002B03D1032175
:103B0C001420FFF7AFFF00BF0837BD4680BD80B55E
:103B1C0084B000AF78600023FB737968262000F036
:103B2C0011F80346FB73FB7B002B04D0786800F084
:103B3C001DF90346FB7300F056F9FB7B1846103752
:103B4C00BD4680BD80B586B002AF03463960FB71BF
:103B5C000023FB7307210D20FFF762FF3B68FA7906
:103B6C001A7007F10C0300933B68012239680C2092
:103B7C0000F012F80346FB73FB7B83F00103DBB20E
:103B8C00002B02D1BB89102B01D00023FB73FB7BD4
:103B9C0018461037BD4680BD80B588B000AFB960FF
:103BAC007B600346FB731346BB730023FB77002338
:103BBC00BB7700237B77FB7B0C2B06D00E2B09D11C
:103BCC001223BB7710237B7705E07723BB77302359
:103BDC007B7700E000BFBB7F63F07F03DBB219464D
:103BEC000220FFF71DFF80210420FFF755FF8021E5
:103BFC000A20FFF737FF00210120FFF711FF0023F8
:103C0C007B830AE07B8BBA6813441B781946092026
:103C1C00FFF706FF7B8B01337B83BB7B9BB27A8BDD
:103C2C009A42EFD3FB7B19460120FFF7F9FEFB7B91
:103C3C000C2B03D180210D20FFF714FF64237B8311
:103C4C000420FFF7C3FE03463B777B8B013B7B8352
:103C5C007B8B002B0AD03B7F03F00103002B05D19B
:103C6C003A7F7B7F1340DBB2002BE9D080210D2003
:103C7C00FFF712FF7B8B002B6DD00620FFF7A6FE03
:103C8C00034603F01B03002B60D10123FB773A7F23
:103C9C00BB7F1340DBB203F00103002B01D00023E8
:103CAC00FB77FB7B0C2B56D10A20FFF78FFE0346CC
:103CBC003B773B7F7B760C20FFF788FE034603F0B7
:103CCC0007033B763B7E002B0BD03B7F013B9BB22B
:103CDC00DB009AB23B7E9BB213449AB2BB6A1A8049
:103CEC0005E03B7F9BB2DB009AB2BB6A1A803B7F3C
:103CFC00002B01D101233B773B7F102B01D91023E3
:103D0C003B7700237B8314E00920FFF75FFE03461B
:103D1C00FB757B7E042B04D1FB7D1946104800F00B
:103D2C0093FA7B8B7A681344FA7D1A707B8B013380
:103D3C007B833B7F9BB27A8B9A42E5D37B7E042BB1
:103D4C0002D1084800F0E6FAFB7F05E0064800F0D7
:103D5C00E1FA0023FB77FB7F18462037BD4680BD78
:103D6C0050560008585600085C56000880B586B0BE
:103D7C0002AF786000237B7300210D20FFF750FE0B
:103D8C007B6893221A707B68013320221A7007F12A
:103D9C000A0300937B68022279680C20FFF7FCFE73
:103DAC000346FB73FB7B002B18D00023BB7309E08D
:103DBC00BB7B7A6813441A787B7B53407B73BB7B49
:103DCC000133BB73BB7B032BF2D9BB7B7A681344E7
:103DDC001B787A7B9A4201D00023FB73FB7B18463D
:103DEC001037BD4680BD80B584B002AF50233B7008
:103DFC0000237B703B469A1C3B460221184600F080
:103E0C000DF83A463946BB1D0093134604220C208C
:103E1C00FFF7C2FE00BF0837BD4680BD90B587B026
:103E2C0000AFF8600B467A60FB7204210520FFF7A7
:103E3C0033FE80210A20FFF715FE0023FB750AE0F4
:103E4C00FB7DFA6813441B7819460920FFF7E8FD3F
:103E5C00FB7D0133FB75FA7DFB7A9A42F0D303218B
:103E6C000120FFF7DDFDFF23FB750520FFF7AEFDFD
:103E7C000346BB75FB7D013BFB75FB7D002B04D022
:103E8C00BB7D03F00403002BEFD02220FFF79EFD37
:103E9C0003461A467B681A707B685C1C2120FFF76E
:103EAC0095FD0346237000BF1C37BD4690BD80B501
:103EBC0090B000AF07F1180328220021184600F03B
:103ECC0039FB3B1D00221A605A609A60DA601A6155
:103EDC000123BB614FF48033FB6100233B62012360
:103EEC00BB6202237B634FF48033BB634FF4E0135C
:103EFC00FB6307F118031846FDF700FC0346002B83
:103F0C0001D0002315E00F237B600223BB6000234C
:103F1C00FB604FF480633B6100237B613B1D0221FE
:103F2C001846FDF76DFE0346002B01D0002300E080
:103F3C00012318464037BD4680BD000080B586B0D1
:103F4C0000AF07F1080300221A605A609A60DA6029
:103F5C00204B9B691F4A43F0040393611D4B9B69E3
:103F6C0003F004037B607B681A4B9B69194A43F08E
:103F7C0008039361174B9B6903F008033B603B6894
:103F8C00A023BB600223FB6003237B6107F10803C2
:103F9C0019461148FDF7DEF94023BB600023FB6096
:103FAC0000233B6107F1080319460B48FDF7D2F9D2
:103FBC001023BB600123FB6000233B6102237B6168
:103FCC0007F1080319460448FDF7C4F900BF183778
:103FDC00BD4680BD001002400008014080B582B093
:103FEC0000AF1F4B9B691E4A43F4805393611C4BDB
:103FFC009B6903F480537B607B681A4B1A4A1A60E6
:10400C00184B4FF482725A60164B00229A60154B73
:10401C000022DA60134B00221A61124B00225A6103
:10402C00104B4FF400729A610E4B1022DA610D4B5B
:10403C0000221A620B4B00225A620A4B00229A622F
:10404C00084B0A22DA620748FEF7FDF90346002BFB
:10405C0001D0002300E0012318460837BD4680BD7F
:10406C0000100240D40000200030014080B500AFA9
:10407C00002210210248FDF7F1FA00BF80BD00BFFD
:10408C000008014080B500AF012210210248FDF765
:10409C00E5FA00BF80BD00BF00080140FCF71EFE22
:1040AC000B480C490C4A002302E0D458C45004338A
:1040BC00C4188C42F9D3094A094C002301E013605F
:1040CC000432A242FBD300F083FAFCF739F87047B4
:1040DC000000002068000020E05600086800002066
:1040EC007C020020FEE70000002310B50446C0E966
:1040FC000033C0E90433836081814366C2818361EC
:10410C00194608225C3000F015FA054B24626362F4
:10411C00044BA362044BE362044B236310BD00BF4A
:10412C007143000893430008CB430008EF43000899
:10413C00024A0349034800F069B800BF0C00002094
:10414C00715100081800002041680C4B10B59942C1
:10415C00044601D001F006F8A168094B994202D03F
:10416C00204600F0FFFFE168064B994204D0204640
:10417C00BDE8104000F0F6BF10BD00BF2C010020C0
:10418C0094010020FC01002010B50B4B0B4C0C4A89
:10419C0020461A6004210022FFF7A6FF04F16800F4
:1041AC0001220921FFF7A0FF04F1D0000222BDE893
:1041BC0010401221FFF798BF640200202C01002050
:1041CC003D410008014800F027BA00BF6D020020F5
:1041DC00014800F022BA00BF6D02002010B5044661
:1041EC00FFF7F0FF236A1BB1BDE81040FFF7F0BFEB
:1041FC00044B2362044B1B68002BF5D1FFF7C4FF63
:10420C00F2E700BF55410008640200202DE9F84395
:10421C000746884614460026D4E90195B9F10109F0
:10422C0005D52468002CF7D13046BDE8F883AB895E
:10423C00012B07D9B5F90E30013303D02946384686
:10424C00C04706436835E9E70FB407B5064904AB28
:10425C00086853F8042B8168019300F053FC03B0F9
:10426C005DF804EB04B0704764000020036A70B57D
:10427C0005460E4684680BB9FFF7B0FF636EDB078B
:10428C0005D4A389980502D4A06D00F0C5F9A389C3
:10429C00190713D523698BB1013EA36816F8011FCA
:1042AC00013BA360E9B9002B2EDA22460A212846ED
:1042BC0000F09BF8013007D00A2507E0214628467C
:1042CC0000F0D0F80028E7D04FF0FF35636EDA0726
:1042DC0005D4A3899B0502D4A06D00F09EF9284655
:1042EC0070BD002B04DAA2699A4206DC0A2904D0BC
:1042FC0023685A1C22601970CFE72246284600F02A
:10430C0074F80130C9D1DFE70A2523685A1C2260F2
:10431C001D70DBE7024B01461868FFF7A7BF00BF13
:10432C00640000200EB46FF0004100B59CB01DABD2
:10433C0002900690079104910848094953F8042B00
:10434C000591006802A9019300F0B6FA0022029BC5
:10435C001A701CB05DF804EB03B0704764000020C9
:10436C000802FFFF10B50C46B1F90E1000F00CF965
:10437C000028ABBF636DA3891B1823F48053ACBF1B
:10438C006365A38110BD2DE9F0411F468B8905465D
:10439C00DB050C46164605D502230022B1F90E109A
:1043AC0000F0E0F8A389324623F48053A381284619
:1043BC003B46B4F90E10BDE8F04100F0F7B810B56B
:1043CC000C46B1F90E1000F0CDF8431CA38915BFB3
:1043DC00606523F4805343F48053A38118BFA381F9
:1043EC0010BDB1F90E1000F0ADB8F8B50E4614467C
:1043FC00054618B1036A0BB9FFF7F0FEA369A36079
:10440C00A3891A0725D523691BB323682269F6B241
:10441C00981A63693746834204DC2146284600F02B
:10442C00A1FEE0B9A368013BA36023685A1C22607B
:10443C001E706269431C9A4204D0A389DB0706D51F
:10444C000A2E04D12146284600F08CFE38B9384695
:10445C00F8BD2146284600F005F80028D5D04FF0CD
:10446C00FF37F4E738B52A4B054618680C4618B1E7
:10447C00036A0BB9FFF7B2FEA389B4F90C20180735
:10448C0022D4D90607D409232B6042F040034FF005
:10449C00FF30A38134E0580712D5616B41B104F1B0
:1044AC004403994202D0284600F0B8F80023636315
:1044BC00A38923F02403A381002363602369236071
:1044CC00A38943F00803A38123694BB9A38903F49F
:1044DC002073B3F5007F03D02146284600F08FFEF1
:1044EC00A089B4F90C2010F001030AD00023A360BA
:1044FC0063695B42A361236943B910F08000C4D1A6
:10450C0038BD810758BF6369A360F4E70020F7E763
:10451C006400002010B501390244904201D1002002
:10452C0005E0037811F8014FA34201D0181B10BD10
:10453C000130F2E703460244934200D1704703F87E
:10454C00011BF9E738B50023054D044608462B60DE
:10455C0000F032FF431C02D12B6803B1236038BD3D
:10456C006802002038B50446084611460022054D65
:10457C002A601A4600F038FF431C02D12B6803B1A5
:10458C00236038BD6802002038B504460846114641
:10459C000022054D2A601A4600F02EFF431C02D162
:1045AC002B6803B1236038BD6802002038B504467F
:1045BC00084611460022054D2A601A4600F032FFCB
:1045CC00431C02D12B6803B1236038BD6802002064
:1045DC0070B500260C4D0D4C641BA410A64209D1DD
:1045EC0000F028FF00260A4D0A4C641BA410A642BA
:1045FC0005D170BD55F8043B98470136EEE755F8E8
:10460C00043B98470136F2E7D8560008D856000804
:10461C00D8560008DC5600087047704738B5054678
:10462C00002940D051F8043C0C1F002BB8BFE418F3
:10463C0000F0DCF81C4A136833B963601460284638
:10464C00BDE8384000F0D8B8A34208D9206821183A
:10465C008B4201BF19685B6809182160EDE71A46A7
:10466C005B680BB1A342FAD911685018A0420BD168
:10467C0020680144501883421160E0D118685B68CF
:10468C00084410605360DAE702D90C232B60D6E79C
:10469C00206821188B4201BF19685B6809182160DA
:1046AC0063605460CBE738BD7002002070B50E4ECD
:1046BC000C463168054611B900F01AFE30602146EF
:1046CC00284600F015FE431C0AD0C41C24F0030439
:1046DC00A04207D0211A284600F00AFE013001D171
:1046EC004FF0FF34204670BD740200202DE9F843D2
:1046FC00CD1C25F0030508350C2D38BF0C25002DDD
:10470C00074601DBA94205D90C2300263B60304645
:10471C00BDE8F883DFF8D08000F068F8D8F80030F6
:10472C001C465CBB29463846FFF7C0FF431C0446B9
:10473C0055D1D8F800402646002E45D1002C48D043
:10474C0023683146384604EB030900F0D1FD81455E
:10475C003FD1216838466D1A2946FFF7A7FF013073
:10476C0037D023682B442360D8F80030002B38D086
:10477C005A68A2422BD100225A600FE02268521BC9
:10478C001FD40B2A17D96119A342256018BF596091
:10479C00636808BFC8F8001062514B60384604F1DA
:1047AC000B0600F029F826F00706231DF21AAED0EE
:1047BC009B1BA350ABE7A3426268DDD1C8F8002075
:1047CC00ECE723466468ACE734467668B4E71346F6
:1047DC00CCE70C2338463B6000F00EF897E72560D9
:1047EC00DCE75B60FFDE00BF700200200148FFF7D2
:1047FC0013BF00BF6C0200200148FFF70EBF00BFC3
:10480C006C0200202DE9F0471F468E688246BE429E
:10481C000C4690460B682CD88A8912F4906F26D0DF
:10482C006569096905EB4505A3EB010905EBD57530
:10483C007B1C4B446D109D4238BF1D46530527D53C
:10484C002946FFF753FF064660B34A46216900F03C
:10485C006DFDA38923F4906343F08003A38126614B
:10486C004E4426603E466561A5EB0905A560BE4237
:10487C0000D93E4632464146206800F0FCFC002040
:10488C00A3689B1BA360236833442360BDE8F087B7
:10489C002A4600F059FD06460028E0D15046216911
:1048AC00FFF7BCFE0C23CAF80030A3894FF0FF3091
:1048BC0043F04003A381E9E72DE9F04F98468B893B
:1048CC0007461B060D4614469DB00ED50B6963B901
:1048DC004021FFF70BFF2860286120B90C233B60B7
:1048EC004FF0FF30D0E040236B610023099320236D
:1048FC008DF8293030234FF00109CDF80C80DFF80A
:10490C00A0818DF82A3023469A4613F8012B0AB160
:10491C00252AF9D1BAEB040B0BD05B46224629466B
:10492C003846FFF76FFF013000F0A980099A5A440E
:10493C0009929AF80030002B00F0A18000234FF070
:10494C00FF32CDE905230AF1010A049307938DF890
:10495C0053301A935446052214F8011B504800F0AA
:10496C00D7FC049AD8B9D00644BF20238DF8533015
:10497C00110744BF2B238DF853309AF800302A2BA3
:10498C0015D0544600204FF00A0C079A214611F816
:10499C00013B303B092B4DD9B0B1079214E0A0EB91
:1049AC00080309FA03F31343A2460493D2E7039BCB
:1049BC00191D1B680391002BBBBF5B4242F0020226
:1049CC0007930793B8BF049223782E2B0CD16378EE
:1049DC002A2B34D1039B02341A1D1B680392002B23
:1049EC00B8BF4FF0FF330593DFF8B8A00322504651
:1049FC00217800F08DFC38B14022049BA0EB0A001A
:104A0C00824013430134049314F8011B06222648F8
:104A1C008DF8281000F07CFC002838D0234B1BBBF1
:104A2C00039B073323F0070308330393099B334499
:104A3C00099368E70C4601200CFB0232A6E7002321
:104A4C004FF00A0C194601340593204610F8012B3F
:104A5C00303A092A03D9002BC6D00591C4E7044685
:104A6C0001230CFB0121F0E703AB00932A463846E7
:104A7C000F4B04A9AFF30080421C0646D6D1AB897C
:104A8C005B063FF52DAF09981DB0BDE8F08F03AB69
:104A9C0000932A463846064B04A900F0BFF9EBE711
:104AAC00A2560008A8560008AC56000800000000EA
:104ABC0011480008936810B4013B002B936007DA8F
:104ACC009469A34201DB0A2902D110BCFFF78DBC0B
:104ADC001368581C10601970084610BC7047F8B564
:104AEC0006460F461446D518AC4201D1002007E00B
:104AFC003A46304614F8011BFFF7DCFF431CF3D198
:104B0C00F8BD00002DE9F04F0D46144698460646B8
:104B1C009DB018B1036A0BB9FFF760FB6B6ED90738
:104B2C0005D4AB899A0502D4A86DFFF775FDAB8946
:104B3C001B0701D52B699BB929463046FFF792FC20
:104B4C0070B16B6EDC0704D54FF0FF301DB0BDE8C3
:104B5C00F08FAB899805F7D4A86DFFF75EFDF3E7EE
:104B6C000023099320238DF8293030234FF00109BD
:104B7C00CDF80C80DFF8AC818DF82A3023469A46AC
:104B8C0013F8012B0AB1252AF9D1BAEB040B0BD07F
:104B9C005B46224629463046FFF7A1FF013000F064
:104BAC00A980099A5A4409929AF80030002B00F017
:104BBC00A18000234FF0FF32CDE905230AF1010A51
:104BCC00049307938DF853301A935446052214F826
:104BDC00011B544800F09CFB049AD8B9D10644BF81
:104BEC0020238DF85330130744BF2B238DF85330FB
:104BFC009AF800302A2B15D0544600204FF00A0C9E
:104C0C00079A214611F8013B303B092B4DD9B0B125
:104C1C00079214E0A0EB080309FA03F31343A2462E
:104C2C000493D2E7039B191D1B680391002BBBBF98
:104C3C005B4242F0020207930793B8BF04922378B9
:104C4C002E2B0CD163782A2B34D1039B02341A1DE2
:104C5C001B680392002BB8BF4FF0FF330593DFF8AE
:104C6C00C8A003225046217800F052FB38B14022F4
:104C7C00049BA0EB0A00824013430134049314F804
:104C8C00011B062229488DF8281000F041FB002852
:104C9C003FD0274B1BBB039B073323F00703083381
:104CAC000393099B3B44099368E70C4601200CFBDA
:104CBC000232A6E700234FF00A0C19460134059383
:104CCC00204610F8012B303A092A03D9002BC6D004
:104CDC000591C4E7044601230CFB0121F0E703AB6B
:104CEC0000932A463046134B04A9AFF300800746C5
:104CFC00781CD6D16B6ED90705D4AB899A0502D432
:104D0C00A86DFFF78AFCAB895B063FF51DAF0998D0
:104D1C001CE703AB00932A463046064B04A900F06F
:104D2C007DF8E4E7A2560008A8560008AC56000827
:104D3C0000000000EB4A00082DE9F04716469946A2
:104D4C008A680B6907469342B8BF1346336091F8E3
:104D5C0043200C46DDF820800AB101333360236810
:104D6C00990642BF336802333360256815F0060597
:104D7C0006D104F1190AE36832689B1AAB422BDCAA
:104D8C0094F84320131E226818BF0123920630D4D6
:104D9C004946384604F14302C047013023D023680A
:104DAC00226903F00603042B14BF002533684FF06F
:104DBC00000608BFE56804F11A0408BFED1A54F8A0
:104DCC00123C08BF25EAE5759342C4BF9B1AED1847
:104DDC00B5421AD1002008E0012352464946384614
:104DEC00C047013003D14FF0FF30BDE8F0870135EB
:104DFC00C1E73020E11881F843005A1C94F84510A3
:104E0C002244023382F84310C2E70123224649466A
:104E1C003846C0470130E6D00136D9E72DE9FF47C7
:104E2C000F7E9146782F80460C469A460C9D01F1D8
:104E3C00430207D8622F0AD8002F00F0D580582FD4
:104E4C0000F0C18004F1420584F842703AE0A7F109
:104E5C006303152BF6D801A151F823F0C14E0008BD
:104E6C00D54E0008514E0008514E0008514E000816
:104E7C00514E0008D54E0008514E0008514E000806
:104E8C00514E0008514E0008DB4F0008014F00083E
:104E9C00954F0008514E0008514E0008FD4F000878
:104EAC00514E0008014F0008514E0008514E0008A9
:104EBC009D4F00082B681A1D1B682A6004F14205DF
:104ECC0084F842300123A0E020682B68070603F128
:104EDC000401296001D51E6803E04606FBD5B3F931
:104EEC000060002E03DA2D23764284F843300A2327
:104EFC00594812E02B682068191D2960050601D558
:104F0C001E6802E04106FBD51E886F2F0CBF0823DC
:104F1C000A235148002184F843106568002DA8BF6E
:104F2C002168A560A4BF21F0040121600EB9002DF9
:104F3C004BD01546B6FBF3F103FB1167C75D05F8C3
:104F4C00017D3746BB420E46F4D9082B0BD12368A2
:104F5C00DE0708D5236961689942DEBF302305F866
:104F6C00013C05F1FF35521B22614B462146404660
:104F7C00CDF800A003AAFFF7DFFE01304AD14FF0B5
:104F8C00FF3004B0BDE8F087236843F020032360B2
:104F9C007827324884F84570236829681F0651F831
:104FAC00046B02D45F0648BFB6B2DF0748BF43F0BC
:104FBC002003296048BF23601EB9236823F0200317
:104FCC0023601023A6E72448E4E71546BDE72B68C9
:104FDC002668181D6169286035061B6801D51960A3
:104FEC0002E07006FBD51980002315462361BCE74F
:104FFC002B6800211A1D2A601D686268284600F083
:10500C0087F908B1401B606063682361002384F852
:10501C004330AAE72A46494640462369D047013027
:10502C00ADD023689B0713D4E068039B9842B8BFAC
:10503C001846A6E70123324649464046D047013080
:10504C009DD00135E36803995B1AAB42F2DCEBE7C8
:10505C00002504F11906F5E7B3560008C4560008FC
:10506C008A89F8B5054610070C4657D44B68002BB7
:10507C0004DC0B6C002B01DC0020F8BDE66A002E72
:10508C00FAD0002312F480522F68216A2B6032D0A0
:10509C00606DA3895A0705D56368C01A636B0BB1A1
:1050AC00236CC01A00230246E66A2846216AB047E0
:1050BC00431CA38906D129681D292BD8284A0A41EB
:1050CC00D60727D4002262602269D904226004D555
:1050DC00421C01D12B6803B96065616B2F600029FC
:1050EC00CAD004F14403994202D02846FFF796FA3D
:1050FC0000206063C1E701232846B047411CC8D19A
:10510C002B68002BC5D01D2B01D0162B01D12F6085
:10511C00B2E7A38943F04003A381AEE70F69002FE8
:10512C00AAD0930718BF00230E6808BF4B69F61B63
:10513C000F608B60002E9FDD33463A462846216A6D
:10514C00D4F828C0E047002806DCA3894FF0FF30D4
:10515C0043F04003A38190E70744361AEAE700BF07
:10516C00FEFFBFDF38B50B6905460C4613B90025A9
:10517C00284638BD18B1036A0BB9FFF72FF8B4F9FC
:10518C000C30002BF3D0626ED00704D4990502D4F6
:10519C00A06DFFF741FA28462146FFF761FF636EC9
:1051AC000546DA07E4D4A3899B05E1D4A06DFFF78B
:1051BC0034FADDE770B50C46B1F90E10154600292E
:1051CC001E4696B00CDAA389002113F0800F0CBF99
:1051DC004FF480634023002031602B6016B070BD0B
:1051EC006A4600F063F80028EDDB019901F4704188
:1051FC00A1F50053594259414FF48063EBE78B8979
:10520C0073B59D0706460C4607D504F1470323608A
:10521C0023610123636102B070BD6A4601ABFFF7E5
:10522C00C9FF009905463046FFF760FA48B9B4F952
:10523C000C309A05EFD423F0030343F00203A3814F
:10524C00E3E7A389206043F08003A381009B2061E6
:10525C006361019B5BB13046B4F90E1000F038F875
:10526C0028B1A38923F0030343F00103A381A3898D
:10527C001D43A581CFE7884210B501EB020402D98A
:10528C008442234607D8431EA14208D011F8012BB3
:10529C0003F8012FF8E7014602448A4200D110BD01
:1052AC0013F8014D02F8014DF7E7000038B5002363
:1052BC00064D0446084611462B6000F085F8431C49
:1052CC0002D12B6803B1236038BD00BF68020020F7
:1052DC0038B50023054D044608462B6000F07CF8D9
:1052EC00431C02D12B6803B1236038BD6802002037
:1052FC0038B50023054D044608462B6000F084F8B1
:10530C00431C02D12B6803B1236038BD6802002016
:10531C00034610B5C9B202449342184601D100208D
:10532C0003E0047801338C42F6D110BD0A4491425B
:10533C0000F1FF3300D1704710B511F8014B9142C9
:10534C0003F8014FF9D110BD2DE9F0418046144608
:10535C000E4621B91146BDE8F041FFF7C7B92AB98D
:10536C00FFF75CF925462846BDE8F08100F01BF8F4
:10537C008442074602D8B4EB500F12D8214640465F
:10538C00FFF7B4F905460028EDD0BC422246314661
:10539C0028BF3A46FFF7CAFF31464046FFF73EF9B1
:1053AC00E1E73546DFE751F8043C181F002BBCBF82
:1053BC000B58C018704700005822024B4FF0FF30BA
:1053CC001A607047680200205822024B4FF0FF30E1
:1053DC001A607047680200205822024B00201A60A5
:1053EC00704700BF680200205822024B4FF0FF307C
:1053FC001A607047680200205822024B4FF0FF30B1
:10540C001A60704768020020044A0346116809B903
:10541C000349116010680344136070477802002040
:10542C00800200205822024B4FF0FF301A60704768
:10543C0068020020F8B500BFF8BC08BC9E46704757
:0C544C00F8B500BFF8BC08BC9E467047D5
:105458002A2A2A5343414E20594F55522A2A2A00B4
:1054680043415244000000003E4241434B000000CB
:1054780020414444204E45572043415244000000F7
:10548800204241434B0000003E414444204E4557D2
:1054980020434152440000003E44454C45544520B9
:1054A80031204341524400002044454C4554452096
:1054B800414C4C2043415244000000002044454CDC
:1054C8004554452031204341524400003E44454C58
:1054D80045544520414C4C204341524400000000B3
:1054E80041444420594F5552204E45570000000072
:1054F80053454355524954592043415244000000F2
:105508004341524420414C52454144590000000057
:105518004558495354532021212100004341524406
:105528002049532041444445440000005355434317
:10553800455346554C4C590054484520534543550E
:10554800524954590000000043415244204C4953E9
:10555800542049532046554C4C0000005343414EBB
:1055680020594F5552204341524400004D41535455
:10557800455220434152442043414E004E4F54204F
:1055880042452044454C455445440000594F555226
:1055980020434152442049530000000044454C45F3
:1055A800544544004953204E4F54204558495354BC
:1055B800000000005448455245204953204E4F00F2
:1055C80053454355524954592043415244530000CE
:1055D8004152452044454C45544544002A534543CF
:1055E800555249545920434152442A0049532056A0
:1055F800414C494400000000495320494E56414C53
:105608004944000044495341424C45205343414ECC
:105618004E494E4700000000504C45415345205725
:105628004149543A0000000025303264000000006F
:10563800534554555020594F555200004D4153542D
:105648004552204341524400253032782000000062
:105658000D0000006572726F720D000000000000FE
:10566800000000000102030406070809000000000A
:105678000102030402030405060708090A0B0C0DBE
:105688000E0F1010010200000203040506070809A6
:105698000A0B0C0D0E0F10100102232D302B2000C9
:1056A800686C4C00656667454647003031323334D4
:1056B8003536373839414243444546003031323374
:1056C8003435363738396162636465660000000036
:0456D8003101000894
:0456DC000D010008B4
:1056E0000024F40010000000010000000000000091
:1056F000030000002C010020000000002C0100200D
:1057000094010020FC0100200000000000000000C7
:105710000000000000000000000000000000000089
:105720000000000000000000000000000000000079
:105730000000000000000000000000000000000069
:08574000000000001800002029
:04000005080040A906
:00000001FF
